:100000000C9446010C9463010C9463010C946301FD
:100010000C9463010C9463010C9463010C946301D0
:100020000C9463010C9463010C944A1B0C941E1CE9
:100030000C946A160C9463010C9463010C94630194
:100040000C9463010C9463010C9463010C946301A0
:100050000C9463010C94F1160C9463010C946301ED
:100060000C9463010C9463010C9463010C94630180
:100070000C9463010C9463010C9463010C94630170
:100080000C9463010C9463010C9463010C94630160
:100090000C9463010C9463010C9463010C94630150
:1000A0000C9463010C9463010C9463012900140007
:1000B0001A000800150017001C0018000C001200A0
:1000C00013002A002B0004001600070009000A0094
:1000D0000B000D000E000F0034002800E1001D0091
:1000E0001B00060019000500110010003800E50093
:1000F00052005400E0006500E2002C002C0050008B
:1001000051004F00000000000000000016036400D2
:10011000750063006B0065007200340035007600E6
:10012000310000001E0341006E00670065006C0096
:100130006F0020005000650072006F0074007400B2
:10014000690000000403090409023B00020100A049
:10015000FA09040000010301010009211101000155
:100160002240000705810308000109040100010382
:1001700000000009211101000122B60007058203D9
:100180002000011201000200000008EDFE00000046
:10019000010102000105010902A10185020901A175
:1001A0000005091901290815002501950875018127
:1001B000020501093009311581257F9502750881F5
:1001C0000609381581257F950175088106050C0AF9
:1001D00038021581257F950175088106C0C005018B
:1001E0000980A101850319012AB700150126B7006E
:1001F000950175108100C0050C0901A10185041944
:10020000012AA002150126A002950175108100C0E7
:1002100005010906A1018506050719E029E7150072
:1002200025019508750181020507190029EF1500C0
:10023000250195F07501810205081901290595052B
:1002400075019102950175039101C005010906A18F
:1002500001050719E029E7150025019508750181B9
:10026000029501750881010507190029FF1500266F
:10027000FF009506750881000508190129059505F7
:1002800075019102950175039101C00011241FBEF3
:10029000CFEFDAE0DEBFCDBF11E0A0E0B1E0E6E8ED
:1002A000FDE302C005900D92A639B107D9F722E00F
:1002B000A6E9B1E001C01D92AA3AB207E1F70E9497
:1002C00090100C94821E0C940000811112C06430B6
:1002D00080F44C3070F4E42FF0E08CE0689FE00D87
:1002E000F11D1124EE0FFF1FE455FF4F85919491EE
:1002F000089581E090E008950E946501089581E0ED
:10030000089581E008950E948101089508950E9452
:1003100086010895A5E0B0E0E0E9F1E00C94EE1D5F
:1003200049835A8330919D0189819A81311119C085
:10033000662399F0222389F00E942B07182F682F3B
:1003400089819A810E94070769817A81812F0E94A1
:10035000000E2596E3E00C940A1E0E941907182F40
:10036000F3CF0E942B0769817A81F1CFFC01262F00
:10037000408151816281738184810E948A01089544
:1003800081E00895CF93DF93EC0160E00E94B60115
:10039000BE010E948701DF91CF91089508950E94C8
:1003A000D6050E94CE012FEF84E39CE021508040CF
:1003B0009040E1F700C0000008950E94CF010E9424
:1003C000151708950E94CF010E94261708950F93D4
:1003D0001F93CF93DF938C0161E00E94B601EC0183
:1003E000B8010E948301811106C080E0DF91CF91A6
:1003F0001F910F910895B801CE010E948B1488239C
:10040000A1F3B801CE010E942113882371F3B80132
:10041000CE010E94FD13882341F3F80182818823D5
:1004200061F0C330FCE7DF07E9F058F4C115ECE7F1
:10043000DE07A9F0C130DC47B9F0C8010E947F0196
:10044000D5CFCB358CE7D807A9F0CC35ECE7DE0764
:1004500071F0CA35DC4789F70E945C0BEECF0E9431
:10046000DD01C3CF0E94640B0E94E201BECF0E9457
:10047000520BE3CF0E94600BE0CF0E9446160E9411
:10048000640208950E9468020E944B160895089520
:1004900081E008950895CF93DF93D82F0E944802FA
:1004A000C82F882319F08D2F0E944A028C2FDF91CC
:1004B000CF9108950895CF93C82F0E9447028C2FA3
:1004C0000E944B02CF91089580E00E945B02089544
:1004D0000E94D9140E945B020895CF930E94D91400
:1004E000C82F809198018C1779F0C09398010E94D1
:1004F000D6166093990170939A0180939B01909313
:100500009C018C2F0E945B02CF910895ABE0B0E07C
:10051000ECE8F2E00C94EF1D4F83588769877A87E7
:100520008B8761110E949D0A1E821D8285E0FE015B
:100530003796DE01119601900D928A95E1F78C8134
:100540009D81892B61F449815A816B817C818D81E8
:100550009E810E94C5092B96E2E00C940B1E8981B6
:100560009A8189238F3F79F3CE0101960E94C001C1
:100570008111E9CFF0CFFC01808191810E945D075C
:100580000895662329F00E9414110E94E71108952E
:100590000E946E11FACFCF93C82F8823B9F08CEF49
:1005A0008C0F813AA8F46C2F809100019091010189
:1005B0000E946C15882329F08C2F0E945D0A0E94EE
:1005C000BE0A8C2F0E94550A0E94BE0ACF91089540
:1005D00080E28C0F883048F4C77081E001C0880F3A
:1005E000CA95EAF70E94800AEFCFEBE5EC0FE33003
:1005F00040F4F0E0E75BFE4F808190E00E940E1532
:10060000E5CFE8E5EC0FEB3150F4F0E0EE0FFF1F23
:10061000ED5EFE4F808191810E943315D7CF83E339
:100620008C0F833198F661E08C2F0E94C102CECFEF
:10063000882381F19CEF980F913A28F40E945D0A7B
:100640000E94BE0A089590E2980F983050F4877087
:1006500091E001C0990F8A95EAF7892F0E94860AD6
:10066000EFCF9BE5980F933028F490E080E00E9454
:100670000E15089598E5980F9B3128F490E080E0DE
:100680000E943315089593E3980F933118F460E0B6
:100690000E94C10208951F93CF93DF93182FEB019F
:1006A0000E94CB02209739F4812F0E941803DF911A
:1006B000CF911F9108958FE99FE00197F1F700C056
:1006C00000002197EFCF70E060E0893311F460E51E
:1006D00070E00E944B030895882321F00E94800A55
:1006E0000E94BE0A0895882321F00E94860A0E9473
:1006F000BE0A0895B0E0A0E0E0E8F3E00C94E81D45
:100700006C01D62FC72FFC011281058102950F7055
:100710000E94760AE82E8823E9F0E12E1123D1F019
:100720008C2F807F803451F080E28D0F8830F8F07C
:10073000011104C08C2F807E8032C9F08091880224
:1007400082FF15C082E00E94210B0E94760A91E090
:10075000E82EE926BC2EB2949FE0B922FBE0FB15FF
:10076000B8F1EB2DF0E0EC57F14E0C94D91DE12CD3
:10077000F1CF0C2F0F70C07F11F00295007F112375
:1007800099F0002359F080E28D0F883010F0D111DC
:1007900007C0802F0E94800A0E94BE0A8D2F63C06E
:1007A000802F0E94900AF8CF8D2F0E9418030023FB
:1007B00079F080E28D0F883010F0D11104C0802FC5
:1007C0000E94860A03C0802F0E94960A0E94BE0AD9
:1007D0002B2D2850330B2430310520F40E94D914DE
:1007E0000E945B02EE2089F00E94720A80FD0DC01B
:1007F000F60112820E946C0A0E946506C6010E94E0
:1008000096050E946C0A0E947506CDB7DEB7E9E036
:100810000C94041E2C2F2F70F22EC07FC03219F0C2
:10082000F29480EFF822DD2381F0D13009F449C041
:10083000112309F451C0002309F448C0F601858151
:1008400080FFACCF8F70858341C08091880282FD8C
:1008500015C0112359F0FF2029F08F2D0E94800A26
:100860000E94BE0A80E00E94CB02B2CF80E00E94CC
:100870001803FF2009F4ACCF8F2DA2CF112381F0F4
:10088000011106C00E94A00A8F290E946C03A0CF0C
:100890000130C1F70E94A00A8F290E94A70A98CFB1
:1008A000011106C00E94B40A8F2D0E94730390CFDD
:1008B000013009F48DCF8F2D0E9473030E94B40A7A
:1008C00087CF112329F0063008F082CF8F2DDDCF9E
:1008D000053008F07DCFE8CF002331F3D93349F458
:1008E000FFEF27EE33E0F15020403040E1F700C049
:1008F00000008D2F0E9418036BCF8C2F8695869554
:10090000837069F0813009F063CF8D2F9C2F937035
:10091000111102C080E090E00E94331559CF8D2F55
:100920009C2F9370111102C080E090E00E940E1580
:100930004FCF612F8D2F0E94C1024ACF8C2F837021
:10094000A1F5111145CF4D2F429546954770440FA3
:10095000440F2D2F2F7030E0042E02C0220F331FC2
:100960000A94E2F790E080E0D4FF09C08FE090E0C5
:1009700002C0880F991F4A95E2F780959095C69519
:10098000C695C370822B932BC23049F058F4C13006
:1009900019F00E9435061CCF0E942C0619CF0E9428
:1009A0003E0616CF0E94290613CF8695112311F01B
:1009B0008C2F8170882309F40BCF4D2F42954695DB
:1009C0004770440F440F2D2F2F7030E0042E02C0CB
:1009D000220F331F0A94E2F790E080E0D4FF09C0B1
:1009E0008FE090E002C0880F991F4A95E2F780954A
:1009F0009095C695C695C370822B932BC23049F053
:100A000058F4C13019F00E94A006E2CE0E94970669
:100A1000DFCE0E94A906DCCE0E944D06D9CECF7053
:100A2000112329F08C2F0E9465068D2F2ECF8D2F3C
:100A30000E9473038C2F0E947506CACED23F41F1EB
:100A400060F4D03FB9F0D13F81F0112309F446C0E2
:100A50000111A4CE8C2F8F711FC0D33F01F1D43F61
:100A6000A1F78091880282FD24C08C2F8F71112301
:100A700011F312C0112341F0053008F0A9CE8C2FDC
:100A80008F710E948706A4CE063008F0A1CEF7CF62
:100A90008C2F8F711111CFCF0E94650699CE112333
:100AA00029F08C2F8F710E94590692CE0E94540615
:100AB0008FCE112349F0CF718C2F0E94650663E021
:100AC0008C2F0E94030B84CE81E00E94210B023008
:100AD00008F47ECE82E00E94210B7ACE002359F0EA
:100AE000D93309F006CF8FEF97EEE3E081509040C5
:100AF000E040E1F7FCCE8C2F8F719DCF0F931F93B9
:100B0000CF93DF93EC01688179818A810E94680725
:100B10008C010E94B2060E942806B801CE010E94F4
:100B20007A03DF91CF911F910F910895CF93DF93B7
:100B3000EC018B819C81892B29F088819981892303
:100B40008F3F51F4DF91CF910895CE010E947E0531
:100B5000CE010E94C201F6CFCE010E94E7018111B1
:100B6000F4CF0E94760A882369F38A81882351F39F
:100B70008091880282FFE6CF82E00E94210BE2CFC3
:100B800090E080E00E940E1590E080E00E94331516
:100B90000E949D0A0E94BE0A0E9403120E94E71151
:100BA00008950E94650A0E94C00508950E948D0A5A
:100BB0000E94D105089592959F70963091F058F457
:100BC000925F9F70923058F4803F19F030F4883E65
:100BD00030F481E008959A5FF4CF843FD1F380E050
:100BE0000895883EB0F3813FD1F7F3CFFC018381B4
:100BF0009481892B29F08081918189238F3F11F481
:100C000080E00895808191810E945D070E94DB054C
:100C10000895A5E0B0E0EFE0F6E00C94EF1D259616
:100C2000E2E00C940B1EA6E0B0E0E9E1F6E00C94E3
:100C3000EF1D2696E2E00C940B1E08950E941D06FF
:100C400008950E941E069093B9018093B8010895FB
:100C500008950E94210608952091B8013091B901AC
:100C6000822B932B0E94210608952091B801309188
:100C7000B901822393230E94210608952091B8018F
:100C80003091B901822793270E94210608950E947E
:100C90001D0608950E94470608950E944A069093F3
:100CA000B7018093B601089590E080E00E944D0660
:100CB000089521E030E0A90102C0440F551F8A9534
:100CC000E2F7CA010E944D06089521E030E002C01B
:100CD000220F331F8A95E2F78091B6019091B701F8
:100CE000822B932B0E944D06089521E030E002C034
:100CF000220F331F8A95E2F7209530958091B60137
:100D00009091B701822393230E944D06089521E01C
:100D100030E002C0220F331F8A95E2F78091B601BE
:100D20009091B701822793270E944D060895209144
:100D3000B6013091B701822B932B0E944D06089586
:100D40002091B6013091B701822393230E944D0672
:100D500008952091B6013091B701822793270E9410
:100D60004D0608950895262F277091E001C0990F30
:100D70002A95EAF723E0769567952A95E1F7660FBD
:100D8000771F660F771FFA01E60FF71F50E040E06C
:100D9000682F70E08191DF0111979B01042E02C042
:100DA000369527950A94E2F7217021952827292363
:100DB00028272C934F5F5F4F4430510559F7089512
:100DC000A82FA77023E0969587952A95E1F7880FBD
:100DD000991F880F991FFB01E80FF91F50E040E0B1
:100DE00080E0219130E00A2E02C0369527950A94C2
:100DF000E2F721703327042E01C0220F0A94EAF78C
:100E0000822B4F5F5F4F4430510559F70895262FCD
:100E1000943070F48C3060F4682F70E08CE0989F10
:100E2000600D711D11244EE951E0822F0E94B3061E
:100E30000895292F943068F48C3058F490E06EE9CE
:100E400071E03CE0239F800D911D11240E94E0067B
:100E5000089580E00895B0E0A0E0E1E3F7E00C94AD
:100E6000E81D7C010091B6011091B7018091B80195
:100E70009091B901082B192BCFE0D0E0CC24C3947A
:100E8000D12CBC2EC6010C2E02C0880F991F0A94CB
:100E9000E2F780239123892B49F4219790F7B12C15
:100EA0008B2DCDB7DEB7E9E00C94041EB7018C2F73
:100EB0000E940C0E019789F3F3CFCF93DF93EC01DF
:100EC0000E942B07BE010E940C0EDF91CF91089566
:100ED0001F93CF93DF93EB0190919D01992339F0FC
:100EE000CB010E945D07DF91CF911F910895882368
:100EF00069F0CB010E942B07182F682FCE010E94AA
:100F00000707BE01812F0E940C0EEDCFCB010E947E
:100F10001907182FF6CF1F93CF93DF93C091BA0113
:100F200016E08091BB018C1304C0DF91CF911F911B
:100F30000895D0E01C9FF0011D9FF00D1124E45492
:100F4000FE4F4081518162817381848195810E942D
:100F500013062196C770E5CF4091EC015091ED0149
:100F60006091EE017091EF018091F0019091F1019B
:100F70000E94130608952091BA019091BB0156E09A
:100F8000291302C080E0089530E0529FF001539F82
:100F9000F00D1124E454FE4F7181761306C0708168
:100FA000781303C07281741304C02F5F3F4F277002
:100FB000E7CF81E008951F93CF93DF938091F101F4
:100FC000807F09F04BC08091EE01882309F446C070
:100FD0008091BA01C091BB014091EC015091ED01AB
:100FE0006091EF017091F001D42FD52316E0C8175E
:100FF000A9F190E061157105A9F1DF3F99F1189F02
:10100000F001199FF00D1124DF01A454BE4F119679
:101010002C911197251326C02C91241323C01296CE
:101020002C91129721111EC013962D913C91261BD5
:10103000370B283C3105B0F48091F1018F7080614D
:101040008093F101EF53FE4F80818F708061808328
:101050008CEE91E00E9496050E948B07DF91CF9164
:101060001F91089501968770C2CFA1E1B0E0EBE334
:10107000F8E00C94E51D8C0185E0F801DE011D9679
:1010800001900D928A95E1F7F801F2808CEEA82E7E
:1010900081E0B82E4091EF015091F00141155105CA
:1010A00009F45AC19091EC012091ED01892F82231E
:1010B0008F3F09F451C1C080D18083809480E0903B
:1010C000EE01B401641B750BEE2009F4F6C08091AB
:1010D000F101382F307F683C710508F0AFC0311145
:1010E0007AC0EF2C2D1116C09C1114C0F11012C043
:1010F0008F7080618093F1010E94AC07C5010E944E
:1011000096058091F101F80185838E2D6196ECE0C2
:101110000C94011E81149104C9F18C2D8D218F3FF7
:10112000A9F181E08F2580FF05C04F2D6D2D8C2DFD
:101130000E94BB078114910459F18C2D8D218F3FA2
:1011400039F181E08F25F82FF170BF2E80FF39C073
:101150004F2D6D2D8C2D0E94BB07A82E811131C003
:10116000CD86DE868D859E850E945D07292F22957E
:101170002F70243078F49F702230A8F09923B9F0B2
:10118000F8019581907F99F4EA2CBFCF80E0CBCF16
:1011900080E0D9CF2A5F2F70223068F0C8010E940A
:1011A0009605AB2CF1CF992311F0882369F3805E6B
:1011B000883050F3F3CF803F38F3815F833070F78E
:1011C000E3CFFF2009F4A1CF8091F10181608093EA
:1011D000F101E12C9ACF2D1105C09C1103C0FF2015
:1011E00009F486C0C8010E94F605882319F1FF2082
:1011F00009F18091F101803270F02091EC01309181
:10120000ED0138872F8319869B868A868C87CE01CD
:1012100007960E94960586E0F801ACEEB1E00190D9
:101220000D928A95E1F70E94DB070E94AC07EE243D
:10123000E3946BCFC8010E949605F9CF311114C019
:10124000782D998A888AA6016F2D89890E940906BE
:101250008CEE91E00E94960586E0F50111928A9548
:10126000E9F70E94AC07B5CF2D110EC09C110CC040
:10127000F1100AC08583C8010E94960586E0F50139
:1012800011928A95E9F741CFC8010E94F60588239B
:1012900089F2FF2079F28091F101803208F4BBCF0E
:1012A0002091EC013091ED013A8329831B829D82CC
:1012B0008C828E83CE010196ACCF683C710508F01C
:1012C0003DC0EF2CFF2009F4B5CF2D1129C09C1192
:1012D00027C08091F10180FD1AC0982F907FB9F04E
:1012E0008583903F31F0982F907F905F8F70892B8E
:1012F0008583C8010E94960586E0F801ACEEB1E056
:1013000001900D928A95E1F70E94AC07FECE86E02F
:10131000F801ACEEB1E001900D928A95E1F7F5CEBF
:10132000C8010E94F605811176CF8091F10181609C
:101330008093F101C8010E949605E7CE782D998A25
:10134000888AA6016F2D89890E94090686E0F50129
:1013500011928A95E9F7D8CFFF2009F46BCFC80125
:101360000E94F605E82E882309F464CF86E0F80190
:10137000ACEEB1E001900D928A95E1F78CEE91E030
:101380000E94BB020E94DB07BFCFACE0B0E0EBECF9
:10139000F9E00C94EE1D4F83588769877A878B8715
:1013A0009C87CE0107960E9435088823B1F08A8574
:1013B0009B85892B39F04F815885842F85238F3F5A
:1013C00009F06CC016E08091BA019091BB018913BD
:1013D00043C02C96E3E00C940A1E86E0FE0137968B
:1013E000DE01119601900D928A95E1F78A859B8521
:1013F000892B41F38F81988589238F3F19F32091A1
:10140000BB0130E0C9010196877099274091BA016C
:101410004817190671F40E94D6051092BB0110926C
:10142000BA0186E0ECEEF1E0DF011D928A95E9F762
:10143000C9CF96E0929FD001939FB00D1124A45480
:10144000BE4FFE01319601900D929A95E1F780937F
:10145000BB010E948B07B6CF819FC0011124845429
:101460009E4F0E943508882309F4B3CFE091BA015A
:101470001E9FF0011124E454FE4F4081518162818E
:101480007381848195810E9413068091BA0190E056
:101490000196877099278093BA0195CF69857A85DF
:1014A0008B859C850E9413068DCF682F809100014B
:1014B000909101010E94EC150895682F8091000120
:1014C000909101010E94FA15089580910001909178
:1014D00001010E9408160895809112028595859554
:1014E0008595089580911202877008959091120257
:1014F000977081E009F480E00895809135020895A5
:1015000090913502892B80933502089580959091B2
:10151000350298239093350208951092350208956C
:1015200090913402892B8093340208958095909194
:10153000340298239093340208951092340208954F
:1015400080911302089508950E94A30A089590912E
:10155000880292FF08C090911302981721F080939F
:1015600013020E94A40A089580911302882329F08F
:101570001092130280E00E94A40A0895CF93DF9393
:10158000E0910001F0910101809135028083E091AA
:101590000001F0910101808190913402892B8083B8
:1015A00090911302992381F0E0910001F0910101E3
:1015B0008081892B808380910001909101010E949C
:1015C000581581110E94B40AC0910001D091010107
:1015D00040E250E062EF71E0CE010E942A1E892BAA
:1015E00059F080E2FE01A2EFB1E001900D928A95E0
:1015F000E1F7CE010E94E614DF91CF91089508959E
:101600000E94FF0A08959091880292FF11C098E00D
:10161000899F90011124622B609312020E9465063B
:10162000809112028595859585950E94000B0895FD
:101630000E94650608951092120280E00E94000B3D
:101640000895909112028095892380931202282F89
:10165000277091F4282F082E000C330B92171306D5
:1016600059F09091880292FF07C0859585958595E0
:101670000E9475060E941B0B08959091880292FBB0
:10168000222720F9281769F080FB92F990938802AD
:1016900080918702909188020E94850B82E00E94CF
:1016A000210B08958091880282FB882780F991E0C0
:1016B00089270E943D0B089581E00E943D0B08950B
:1016C00080E00E943D0B08956FEF7FEF90E080E097
:1016D0000E946C1E089590E080E00E94481E21E068
:1016E000873E9E4F09F020E0822F089582E090E02F
:1016F0000E94401E089583E090E00E94401E0895DD
:1017000084E090E00E94481E0895BC0184E090E0CF
:101710000E946C1E0895AB01BC018FE090E00E9416
:10172000601E0895AB01BC0183E190E00E94601E41
:10173000089560E070E0CB010E94920B089560E094
:1017400070E0CB010E948B0B0E94990B089567EE0D
:101750007EEF90E080E00E946C1E60E082E090E00E
:101760000E944E1E60E083E090E00E944E1E1092A8
:10177000B9011092B80160E074E184E090E00E9449
:101780006C1E60E086E090E00E944E1E6FEF87E0E6
:1017900090E00E944E1E40E050E0BA0188E090E0E8
:1017A0000E94601E60E08DE090E00E944E1E40E0CE
:1017B00050E0BA0188E190E00E94601E60E087E19D
:1017C00090E00E944E1E40E050E0BA018CE190E0B3
:1017D0000E94601E70E060E080E290E00E946C1E5B
:1017E00040E050E0BA0188E190E00E94601E0E9453
:1017F0009F0B08950E94A70B0895682F8EE090E03C
:101800000E944E1E0895A5E0B0E0E9E0FCE00C94D3
:10181000ED1D0E94CA168C0180913602909137020C
:1018200080179107A1F08FEF89838A831B820E9422
:10183000CA168160782F9D838C8349815A816B8180
:101840008D810E94860210933702009336022596FE
:10185000E4E00C94091E0E94D61660934402709333
:101860004502809346029093470260934002709332
:10187000410280934202909343020895089508958F
:101880000E943F0C089508950E94430C089581E042
:10189000089586EF9EE00E94CF140E943E0C0E94A5
:1018A000400C08950E94470C08950E94520C089520
:1018B000089508950E94580C0E94590C08950E94A2
:1018C000150F0E945A0208950E94C1160E94F10F3E
:1018D0000E945F0C0E94440C0895A5E0B0E0E3E78D
:1018E000FCE00C94E41D0E94470C81110AC00E9488
:1018F000030C0E9425120E946D022596EDE00C94C7
:10190000001E0E94071028E3822E22E0922E64011E
:1019100010E0F601E190F1906F01812F0E943B0FE2
:101920001F5F143009F449C0E816F90691F380915D
:10193000480281FD0E94440F0E94550C782E10E051
:10194000812F0E943B0F7C01F401A190B1904F01C7
:101950008A159B0561F1A826BF2400E0CC24C3941E
:10196000D12CC5018C219D21892BC1F07720B1F0AC
:1019700009831A8321E0C7018C219D21892B09F459
:1019800020E02B830E94CA168160782F9D838C8370
:1019900049815A816B818D810E9486020F5FCC0C38
:1019A000DD1C0C30F1F6F4013297F182E0821F5F0A
:1019B000143031F60E942B0C9CCFE816F90609F082
:1019C000B6CF95CF1F93CF93DF930E94110EEC01FA
:1019D000C11580E5D807F0F5C11580E4D80708F0F7
:1019E0009CC0C03ED10520F5CD3CD10508F082C099
:1019F000C83AD10578F4C53AD10508F073C0C130B2
:101A0000D10519F1209709F1C430D105F0F4D0E0E7
:101A1000C0E01BC0C33CD105D0F7C85AD0E0CC0F02
:101A2000DD1FC45BDE4F0990D881C02DD4640DC08A
:101A3000C11580E2D80708F0D1C0C11581E0D807F0
:101A400008F05AC0C83ED10510F7CE01DF91CF9102
:101A50001F910895C03682E5D80718F5C03482E595
:101A6000D80708F06BC0C03282E5D80708F05FC025
:101A7000C11582E5D80708F497C02C2F2695269526
:101A800080E2289F900111248C2F8370C1E0D0E068
:101A900002C0CC0FDD1F8A95E2F7C22BD32BDD6885
:101AA000D4CFC03A82E5D80760F4C03882E5D807C1
:101AB00008F459C0CF71D0E0DC2FCC27C46FD06AB6
:101AC000C4CFC03C82E5D80708F462C0C03E82E5BE
:101AD000D80708F09CCFDC2FCC27CC27DF71C06F54
:101AE000D06AB3CFC55AD0E0CE57DE4FC881D0E020
:101AF000D064ABCFD065A9CF8D2F0E94B30E182F25
:101B0000CE0199270E94110EC12FD0E0DC2FCC27E7
:101B1000CC27DF71C82BD92B98CFCE0199270E94F3
:101B2000110ECC27DF70C82BD92BD06A8ECFCF7186
:101B3000D0E0DC2FCC27C16FD06A87CF2C2F269521
:101B40002695277080E2289F900111248C2F8370A6
:101B5000C1E0D0E002C0CC0FDD1F8A95E2F7C22BB6
:101B6000D32BDC6872CF2C2F26952695277080E228
:101B7000289F900111248C2F8370C1E0D0E002C017
:101B8000CC0FDD1F8A95E2F7C22BD32BDA685DCF2D
:101B90008C2F8F710E94B30EC82FD0E0DC2FCC2782
:101BA000CC27DF71D06251CF8C2F8F710E94B30E82
:101BB00055E0D695C7955A95E1F7CF70D0E0DC2F68
:101BC000CC27282F30E084FF05C044E0220F331FCC
:101BD0004A95E1F7C22BD32BD06937CF8D2F8F7168
:101BE0000E94B30E182FCE0199270E94110EC12F0B
:101BF000D0E0DC2FCC27CC27DF71C82BD92BD2CF5C
:101C0000462F743030F46C3020F4672F0E947C0132
:101C1000089590E080E008950E94000E0E94E20C7A
:101C2000089582389105B9F1B0F48133910509F432
:101C30007DC048F48932910509F46DC08A3291055E
:101C400009F47BC008958533910509F45FC0893399
:101C5000910509F10895833E9105D9F138F4803E4C
:101C6000910529F1823E910579F10895863E91050D
:101C7000D9F1873E910509F43EC0843E910541F5B6
:101C80002091880221FF24C08091870284FD19C021
:101C900087EE90E0089520918702237009F05AC0E2
:101CA0002091880223FF14C089E290E008952091DA
:101CB000870220FD38C03091880230FF09C024FF20
:101CC00043C090E080E008952091870222FDF7CF85
:101CD00008952091870222FD3AC03091880230FD9C
:101CE00039C024FFF5CFEDCF2091870223FFF0CF3D
:101CF00024FDE7CFCDCF2091870223FD2EC0309168
:101D0000880231FFEECF84EE90E0089520918702A3
:101D100025FFDECFC9CF2091870225FD21C020916C
:101D2000880223FFD5CF89E390E0D2CF20918702AC
:101D300026FFCECF8AE290E008952091870226FF09
:101D4000C7CF81E390E0089583EE90E0089582EE9E
:101D500090E0089580EE90E0089586EE90E008957A
:101D600085E390E008959091870292FF06C0282FA6
:101D700028712830F9F4877F846093FF06C0282FEC
:101D800028712831F1F4877E84612091880220FF38
:101D900006C0382F38713830D9F4877F816021FF31
:101DA00006C0282F28712831D1F4877E816194FDE7
:101DB000877E0895282F24712430F9F68B7F886060
:101DC000DCCF282F2471243101F78B7E8861DDCF91
:101DD000382F3171313019F78E7F8860E0CF282F8E
:101DE0002171213121F78E7E8861E1CF80E0089555
:101DF0000E94640B08950E9407102FEF86E791E080
:101E0000215080409040E1F700C000000E94071080
:101E100080E00E943B0F80FF04C00E94F80E0E94E9
:101E2000151708950E94FB0E08950E946B0B8111F7
:101E300002C00E94FA0B0E94760B809348020E9417
:101E4000800B90938802809387020E94120F0E9459
:101E50007B0B90E00E9429068091B6019091B7011A
:101E60000E944A06089508950E94330F0895089528
:101E70000E94370F0895E82FF0E0EE0FFF1FEF5696
:101E8000FD4F808191810895089580EA8A95F1F748
:101E9000089500C008950E94450F0895F894E82F12
:101EA000E295EF70F0E031A1282F2F7081E090E0F3
:101EB00001C0880F2A95EAF7982F9095932391A354
:101EC00092A1892B82A378940895CF93DF9384E322
:101ED0000E944E0F85E30E944E0F82E30E944E0F38
:101EE00086E30E944E0FC5E8D1E089918F3F11F043
:101EF0000E944E0F81E0C139D807B9F7DF91CF9129
:101F00000895AF92BF92DF92EF92FF920F931F93CB
:101F1000CF93DF938C01D62EC62FD0E0CE018F5603
:101F20009E4F7C01FC0120812F3F09F44DC0F894A5
:101F3000E22FE295EF70F0E031A12F7081E090E0A8
:101F400001C0880F2A95EAF7932F982B91A392A1AD
:101F50008095892382A378940E94490FE5E8F1E0F7
:101F600041E951E021E030E0B12CA12C61916F3FBB
:101F7000A9F1A62FA295AF70B0E090968C9190E059
:101F80006F7002C0959587956A95E2F780FD26C02F
:101F9000C901A82AB92A220F331F4E175F0731F74C
:101FA000F70180818F3F11F00E944E0F61E0A11474
:101FB000B10409F460E08D2D0E944B0FCC0FDD1FA2
:101FC000C00FD11FB982A882DF91CF911F910F91CD
:101FD000FF90EF90DF90BF90AF90089590E080E089
:101FE000D8CF0E94650F88E0E1E9F2E0DF01982F89
:101FF0001D929A95E9F7E9E8F2E0DF011D928A95D2
:10200000E9F784E00E9442100E94340F0895A8E08E
:10201000B0E0EDE0F0E10C94EC1D8E010F5F1F4F7E
:1020200088E0F80111928A95E9F7F12C6F2DC8012B
:102030000E94810FF394F4E0FF12F8CF48E050E0E3
:10204000B80189E892E00E942A1E21E0009709F475
:1020500020E0892B41F088E0F801A9E8B2E0019086
:102060000D928A95E1F744E061E972E089E892E037
:102070000E944310182F0E94380F812F2896E5E008
:102080000C94081E0895CF92DF92EF92FF921F9357
:10209000CF93DF936C017B01C42F222349F081E0B1
:1020A00080934B020E94CA1690934A028093490281
:1020B00010914B0211110AC010E0812FDF91CF91D6
:1020C0001F91FF90EF90DF90CF900895809149028B
:1020D00090914A020E94E216059770F3D0E0CC0F6F
:1020E000DD1FAE01B601C7010E942A1E892B41F0F7
:1020F000AE01B601C7010E94371E10924B02DDCF20
:1021000010E0FBCF0E949B180E94640C0E94A8184C
:1021100008950E94AD180E946D0C0E94C718089582
:102120000E9463160E9481180E94490C0E9482102E
:102130000E9489100E945A0CFBCF8091520280FFAE
:102140000DC06091070170E0660F771F6038710560
:1021500070F56115710569F1862F089581FF07C03B
:102160006091070184E0689FB0011124EFCF609176
:10217000070182FD0AC0809151028823A9F02091B5
:10218000060160910701821710F088E0ECCF869F6E
:10219000C001112433E0880F991F3A95E1F7622FAF
:1021A00070E00E94C51DD2CF68E070E0D5CF8FE708
:1021B000089581E008958091520280FF0CC06091E3
:1021C000030170E0759567957595679561157105C3
:1021D00049F1862F089581FF06C06091030170E0E8
:1021E00075956795F3CF6091030182FD0BC09091C7
:1021F00050029923A1F0609102018091030196178A
:1022000038F0682F70E06038710500F38FE70895AB
:10221000899FC001112470E00E94C51DF4CF61E0C8
:1022200070E0D7CF81E008958D3C31F40E949D107D
:1022300081958093560208958E3C19F40E949D105A
:10224000F8CF8F3C31F40E949D1081958093550208
:102250000895803D19F40E949D10F8CF893D29F41E
:102260000E94DB108093570208958A3D21F40E945A
:10227000DB108195F7CF8B3D31F40E94DB10819507
:102280008093580208958C3D19F40E94DB10F8CF1A
:102290009FE2980F983070F4815D990B21E030E057
:1022A00001C0220F8A95EAF780915402822B809315
:1022B000540208958D3D31F48091520281608093E3
:1022C000520208958E3D21F4809152028260F7CF30
:1022D0008F3DB9F7809152028460F1CF4091550251
:1022E0008D3C59F48091560287FF0DC01092560222
:1022F00041110BC01092510208C08E3C81F48091B4
:10230000560218169CF3442381F080915702909155
:102310005802892B09F05AC01092500208958F3C40
:1023200049F447FFF0CF1092550280915602811177
:10233000ECCFE0CF803D19F41416ACF3E4CF9091CC
:102340005702893D29F41916F4F610925702DBCF93
:102350008A3D19F497FFD7CFF8CF909158028B3D63
:1023600029F497FFD0CF10925802CDCF8C3D19F4AD
:102370001916CCF3C8CF9FE2980F983090F4815D86
:10238000990B21E030E0B90102C0660F771F8A95F2
:10239000E2F7CB01809590915402892380935402F7
:1023A000B2CF8D3D31F4809152028E7F80935202E4
:1023B000AACF8E3D21F4809152028D7FF7CF8F3DC1
:1023C00009F0A1CF809152028B7FF0CF08950E9437
:1023D000CA169C019091550280915602982B21F0CB
:1023E00030934F0220934E029091570280915802F1
:1023F000982B21F030934D0220934C0283E592E01C
:102400000E940015089586E0E3E5F2E0DF011D92E9
:102410008A95E9F7109251021092500210925202DE
:102420000895FC01828181110EC0838181110BC04E
:102430008481811108C091E08581811101C090E003
:10244000892F8170089581E0FCCFA6E0B0E0EBE237
:10245000F2E10C94EE1D86E0E3E5F2E0DE01119678
:1024600001900D928A95E1F7109255021092560252
:1024700010925702109258028B819C81892B89F00F
:1024800080914E0290914F020E94E216AC01909111
:1024900051029923C9F1809108018417150608F4A7
:1024A00040C08D819E81892B91F080914C0290914A
:1024B0004D020E94E216AC0190915002992309F45A
:1024C00071C0809104018417150608F479C0BE011B
:1024D0006F5F7F4F83E592E00E941A16811105C05D
:1024E00083E592E00E94111281110E94E71186E0BB
:1024F000FE013196A3E5B2E001900D928A95E1F7D5
:102500002696E3E00C940A1E209109018AE0289F98
:10251000900111242417350720F69F5F90935102F4
:1025200002C09F3FD1F71B81112359F00E949D10DB
:102530009FEF11160CF491E0899F802D1124809358
:1025400055021C81112359F00E949D109FEF111616
:102550000CF491E0899F802D1124809356023091D4
:102560005502332309F49DCF20915602222309F40A
:1025700098CF45EB3403C0011124992359F090936F
:10258000550245EB240390011124332339F0309395
:10259000560287CF81E080935502F3CF81E080938C
:1025A00056027FCF209105018AE0289F90011124D7
:1025B0002417350708F08BCF9F5F9093500202C01D
:1025C0009F3FD1F71D81112359F00E94DB109FEF2F
:1025D00011160CF491E0899F802D112480935702ED
:1025E0001E81112359F00E94DB109FEF11160CF48D
:1025F00091E0899F802D11248093580230915702D9
:10260000332309F464CF20915802222309F45FCFC9
:1026100045EB3403C0011124992359F090935702DC
:1026200045EB240390011124332339F030935802F1
:102630004ECF81E080935702F3CF81E08093580220
:1026400046CFCF93DF93EC01FB018281882309F40D
:10265000D2C09E0130572332310508F0B2C00E942B
:10266000800B9093880280938702FE01E150F0472F
:10267000E232F10520F4E057F14E0C94D91D80911F
:10268000870281608093870293C08091880288606E
:10269000809388028DC0809187028260F3CF809101
:1026A00087028460EFCF809187028860EBCF8091B2
:1026B00088028160EDCF809188028260E9CF8091AD
:1026C00087028061DFCF809187028062DBCF8091BB
:1026D00087028064D7CF0E94D605809187028068E8
:1026E000D1CF809187028C60CDCF809188028360AA
:1026F000CFCF809187028E7FC5CF80918802877F60
:10270000C7CF809187028D7FBDCF809187028B7F5D
:10271000B9CF80918702877FB5CF809188028E7F65
:10272000B7CF809188028D7FB3CF809187028F7E53
:10273000A9CF809187028F7DA5CF809187028F7B63
:10274000A1CF0E94D605809187028F779BCF809181
:102750008702837F97CF809188028C7F99CF809169
:10276000870282FB992790F921E0922790FB82F95A
:1027700090FB83F987CF80918802982F9095917074
:102780008E7F892B90FB81F983CF90918702892FCF
:102790008F7B96FF806476CF0E94D605909187024A
:1027A000892F97FB87F980586DCF81E00E94FD0B40
:1027B00080918702909188020E94850B0E94D60525
:1027C00080E0DF91CF91089580E0F0CF9091870273
:1027D000892F8F7E94FF806155CF90918702892F3A
:1027E0008E7F90FF81604ECF90918802892F877FE6
:1027F00093FF88604DCF81E0E4CFCF93DF93EB016F
:1028000086319C4711F50E947D0A9A81992399F09F
:102810008A7A91E009F490E090935902811109C0FD
:1028200089E20E94550A0E94BE0A80E0DF91CF91A2
:10283000089585E3F6CF80915902811104C089E2A1
:102840000E945D0AF0CF85E3FBCF81E0EFCF0F93CD
:102850001F93CF93DF93C42FD22FFC018281882353
:10286000C9F040935C020E94CA1690935B02809369
:102870005A0280E28C0F883040F4C77081E001C0BA
:10288000880FCA95EAF70E946C03DF91CF911F91E0
:102890000F91089510915C02141332C080915A0276
:1028A00090915B020E94E216883C910548F5C0E2D7
:1028B000CD0F1D17B9F080E2810F883040F41770FA
:1028C00081E001C0880F1A95EAF70E947303C830AF
:1028D00048F481E09D2F977001C0880F9A95EAF720
:1028E0000E946C03802F0E946303C83070F6D7707B
:1028F00081E001C0880FDA95EAF70E947303C5CF23
:1029000080E28C0F883008F6C77081E001C0880F24
:10291000CA95EAF7F2CF0F93DB0188519C478730C5
:102920009105A0F5FC01EE54F14E0C94D91D06E280
:1029300021EE41EE6AE17CE7CD010E94271480E0A0
:102940000F91089507E225EE45EE6BE17CE7F4CFA9
:1029500006E221EE40EE68E17CE7EECF07E225EEED
:1029600044EE69E17CE7E8CF06E221EE42EE6CE15D
:102970007CE7E2CF07E225EE46EE6DE17CE7DCCFB7
:1029800008E221E045EE6EE17CE7D6CF12968C910D
:10299000882319F010925C02D3CF81E0D1CF9093BD
:1029A000970180939601089590936202809361024B
:1029B0000895E0916102F0916202309729F0019050
:1029C000F081E02D0995089580E00895E09161027D
:1029D000F0916202309799F020911201222359F070
:1029E0002091870227FF07C0DC012C9111962C93C0
:1029F000119726E02C930280F381E02D099508952C
:102A0000E0916102F0916202309739F022E0DC013E
:102A10002C930480F581E02D09950895A3E0B0E0A2
:102A2000E4E1F5E10C94EF1D20915F02309160022A
:102A300028173907A1F09093600280935F02E0911C
:102A40006102F0916202309751F023E029839B8369
:102A50008A830680F781E02DCE01019609952396A1
:102A6000E2E00C940B1EA3E0B0E0E9E3F5E10C9486
:102A7000EF1D20915D0230915E0228173907A1F009
:102A800090935E0280935D02E0916102F091620298
:102A9000309751F024E029839B838A830680F78155
:102AA000E02DCE01019609952396E2E00C940B1ED1
:102AB000FC01329680911201882321F080918702D7
:102AC0009EE187FF96E080E0915008F408952191FF
:102AD0002223D1F38F5FF8CF662301F120911201F9
:102AE0002223F1F02091870227FF1AC0462F469536
:102AF000469546954E3190F4677021E030E002C073
:102B0000220F331F6A95E2F7840F911DFC01828129
:102B100090E02823392381E0232B69F480E0089595
:102B2000FC01329608962191261721F0E817F90743
:102B3000D1F7F4CF81E008959C01FC0132969FEF1C
:102B400080E04191461751F09F3F19F4411101C0B7
:102B5000982F8F5F8630A9F79F3F09F40895290FBA
:102B6000311D97FD3A95F90162830895FC01329673
:102B700008962191261303C0DF0111971C92E817D4
:102B8000F907B9F70895E62FE695E695E695EE3153
:102B900068F4E80FF92FF11D677021E030E001C003
:102BA000220F6A95EAF78281822B82830895E62FAD
:102BB000E695E695E695EE3170F4E80FF92FF11DF4
:102BC000677021E030E001C0220F6A95EAF7209596
:102BD000828128232283089520911201222339F033
:102BE0002091870227FF03C00E94C31508950E9409
:102BF0009C15089520911201222339F0209187021B
:102C000027FF03C00E94D71508950E94B6150895A6
:102C1000FC01329680911201882351F08091870245
:102C200087FF06C08EE1DF011D928A95E9F70895BE
:102C300086E0F9CF46E050E00E942A1E21E0892B71
:102C400009F420E0822F089508950E942416089523
:102C5000811106C081E0809363020E9425160895C9
:102C600082E0F9CF83E0809363020E9425160895E5
:102C70000E942816089581E0809363020E94251621
:102C800008950E943B160895089508950E944516E0
:102C90000895089508950E9444160895CF930E94C0
:102CA00049160E9407100E944A16C0E08C2F0E940D
:102CB0003B0F892B31F4CF5FC430C1F780E0CF9157
:102CC000089581E0FCCF85B7806885BF85B78068AF
:102CD00085BF08951F921FB61F9211248F939F9353
:102CE000AF93BF9380916402811113C080919902C8
:102CF00090919A02A0919B02B0919C024196A11DD5
:102D0000B11D8093990290939A02A0939B02B09375
:102D10009C02BF91AF919F918F911F901FBE1F90FA
:102D200018958091A102843031F10E943D021092E9
:102D3000640288E190E020E40FB6F894A8958093AF
:102D400060000FBE2093600083B7817F846083BFE3
:102D500083B7816083BF7894889583B78E7F83BF64
:102D60000FB6F894A8958091600088618093600008
:102D7000109260000FBE08950E94D6050E94420284
:102D8000089582E084BD93E095BD9AEF97BD80934E
:102D90006E0008952FB7F8948091990290919A024D
:102DA000A0919B02B0919C022FBF08952FB7F89479
:102DB0006091990270919A0280919B0290919C027D
:102DC0002FBF08959C014FB7F8948091990290917C
:102DD0009A02A0919B02B0919C024FBF821B930B61
:102DE000089578941F921FB61F9211248F939F937A
:102DF000AF93BF938091990290919A02A0919B0208
:102E0000B0919C020196A11DB11D809399029093EF
:102E10009A02A0939B02B0939C02BF91AF919F91A5
:102E20008F911F901FBE1F90189587E797E790938B
:102E300001088093000888E19AE00FB6F894A895FD
:102E4000809360000FBE90936000FFCF88E19AE00E
:102E50000FB6F894A895809360000FBE9093600021
:102E6000FFCF8091850208959B01BA019091A10244
:102E70009430E9F48F708093E9009FEF8091E8002F
:102E8000915085FD06C085ED8A95F1F700009111FE
:102E9000F5CF8091E80085FF0AC050E040E0C9010D
:102EA0000E943E198091E8008E778093E800089593
:102EB00043E050E0BC0182E00E943417089546E0F0
:102EC00050E0BC0182E00E9434170895CF93DF9355
:102ED000EC0180911201811111C048E050E0BE0167
:102EE00081E00E94341780E2FE01A5E6B2E0019085
:102EF0000D928A95E1F7DF91CF9108958091870235
:102F000087FF05C040E282E050E0BE01EACF48E022
:102F100081E0FACF8091A002811109C00E94CE1AEF
:102F20000E942B1B8091E20084608093E200089550
:102F30001092A00208950E943B16089560919D0290
:102F400081E0611101C080E00E94321608959091E5
:102F5000A10281E0943009F080E060919D020E941E
:102F60003816089542E061EC81E00E944A1A42E27C
:102F700061EC82E00E944A1A9091A10281E09430B3
:102F800009F080E060919D020E94281608958091CA
:102F9000A302833009F461C030F48130D1F1823072
:102FA00009F49EC008958A3009F48AC08B3009F470
:102FB0006FC0893009F050C08091A202813209F0BF
:102FC0004BC08091A6029091A702029708F044C0DE
:102FD0008091E800877F8093E8008091E80082FF7D
:102FE00037C09091F3008091F200029731F4809104
:102FF000F100813011F0863021F48091F10080934E
:1030000085028091E8008B778093E8000E947E1A09
:1030100023C08091A202813AF9F48091E800877F71
:103020008093E8008091A6029091A702892B61F419
:1030300060E285E692E070E00E948D198091E800E0
:103040008B778093E800089560E090E080E0F3CF14
:103050008091A1028111C1CF08958091A202813A8D
:10306000D9F78091A6029091A702892BA9F78091A8
:10307000E800877F8093E8008091E80080FFFCCF24
:10308000809112018093F1008091E8008E77BCCF8F
:103090008091A202813201F78091A6029091A7024D
:1030A000892BD1F68091E800877F8093E8000E9409
:1030B0007E1A8091A402809312010E94D605089581
:1030C0008091A202813241F68091E800877F80934F
:1030D000E8000E947E1A8091A502809386020895DE
:1030E0008091A202813A09F0B7CF8091E800877FF2
:1030F0008093E8008091E80080FFFCCF80918602F9
:10310000C1CF84B7877F84BF0FB6F894A89580910C
:103110006000886180936000109260000FBE80E8BC
:1031200090E00FB6F89480936100909361000FBE19
:103130000E94411608950E94CE1A0E942B1BE2EEB7
:10314000F0E080818460808378940E94AA1D0895B5
:103150008AE091E00E94D41408958091A102853004
:1031600031F48091A102853019F00E94BC160895B7
:103170000E94911680919F02882399F30E944E1617
:10318000882379F30E9428190E94D605EACF089572
:103190009A014091A8025091A9020E94D018089566
:1031A000492F55274330510519F168F44130510535
:1031B00009F444C04230510509F445C090E080E074
:1031C00050E040E025C04132510549F142325105FD
:1031D000A9F780E490E04BE452E061157105C1F07D
:1031E00086EB90E045E951E06130710589F0E6CF6A
:1031F00099278130910581F0009729F00297F1F627
:10320000ECE0F1E002C0E4E4F1E0849190E0AF0191
:10321000F901518340830895E4E2F1E0F6CF89E0BB
:1032200090E04AE551E06115710591F389E090E085
:1032300043E751E06130710559F3C0CF82E190E07E
:1032400043E851E0E5CF8BE390E048E451E0E0CF84
:1032500080E189BD82E189BD09B400FEFDCF809186
:10326000D8008F7D8093D8008091E00082608093A9
:10327000E0008091E00081FDFCCF0895AF92BF9205
:10328000CF92DF92FF920F931F93CF93DF936C0146
:10329000EB018A010E949D1AF82E811123C00115AD
:1032A000110539F0F80180819181C81BD90BC80E36
:1032B000D91EB12CA12C2097A9F08091E80085FDA2
:1032C00022C08091E8008E778093E80001151105F7
:1032D000A1F0F80180819181A80EB91EB182A0826F
:1032E00085E0F82E8F2DDF91CF911F910F91FF90E8
:1032F000DF90CF90BF90AF9008950E949D1A8823D1
:10330000D1F2F82EEFCFF60181916F018093F10099
:103310002197FFEFAF1ABF0ACECFFC018091A80220
:103320009091A90286179707A0F06115710529F4FD
:103330009091E8009E779093E80090E06115710508
:1033400051F4911108C08091E80082FF34C080E000
:103350000895BC01F2CF8091A1028823C1F185308C
:10336000C1F18091E80083FD30C08091E80082FDCA
:10337000EACF8091E80080FFE1CF8091F3002091B7
:10338000F200382F6115710519F02830310558F019
:1033900091E02830310509F090E02091E8002E7787
:1033A0002093E800CBCF81918093F10061507109A7
:1033B0002F5F3F4FE7CF8091A102882341F08530F6
:1033C00041F08091E80083FFBECF81E0089582E064
:1033D000089583E00895FC018091A8029091A902CC
:1033E00086179707A0F06115710529F48091E80010
:1033F0008E778093E80090E06115710551F491118A
:1034000008C08091E80082FF35C080E00895BC01CB
:10341000F2CF8091A1028823C9F18530C9F1809152
:10342000E80083FD31C08091E80082FDEACF809101
:10343000E80080FFE1CF8091F3002091F200382F67
:103440006115710519F02830310558F091E02830E8
:10345000310509F090E08091E8008E778093E800D4
:10346000CBCF84918093F1003196615071092F5F29
:103470003F4FE6CF8091A102882341F0853041F093
:103480008091E80083FFBDCF81E0089582E0089538
:1034900083E00895982F973028F08F708093E9008B
:1034A00081E008959093E900242F762F50E098173B
:1034B00031F07091EC002091ED005091F00021FD71
:1034C00002C09F5FE8CF3091EB003E7F3093EB006E
:1034D0003091ED003D7F3093ED003091EB00316095
:1034E0003093EB007093EC002093ED005093F000CC
:1034F0002091EE0027FDE5CF80E008958091A202A3
:1035000087FF13C08091E80082FF06C08091E80029
:103510008B778093E80004C08091A1028111F2CFE3
:1035200008958091A1028823D9F38091E80080FF5B
:10353000F8CF8091E8008E77ECCF2091E4003091B5
:10354000E50095E6A9012091EC00822F817020FF13
:1035500006C08091E80080FF06C080E008952091B9
:10356000E80022FD1AC08091A102882389F08530ED
:1035700089F08091EB0085FD0FC02091E40030912F
:10358000E50042175307F9F29150E1F684E00895FF
:1035900082E0089583E0089581E008950E943D1B34
:1035A0000E94451BE0EEF0E0808181608083E8EDC1
:1035B000F0E080818F77808319BCA7EDB0E08C911B
:1035C0008E7F8C9380818F7E80831092A0020895DD
:1035D0000F931F93CF93DF930E943D1B0E94451BC7
:1035E000C8EDD0E088818F77888388818068888360
:1035F00088818F7D888319BC1092A10210929D0250
:1036000010929F0210929E0200EE10E0F80180815D
:103610008B7F808388818160888342E060E080E0E6
:103620000E944A1AE1EEF0E080818E7F8083E2EE14
:10363000F0E0808181608083808188608083F801F0
:1036400080818E7F8083888180618883DF91CF91A4
:103650001F910F910895E8EDF0E080818F7E8083C7
:10366000E7EDF0E080818160808384E082BF81E0CB
:103670008093A0020E94E81A0895E8EDF0E08081AE
:103680008E7F80831092E20008951092DA001092EB
:10369000E10008951F920F920FB60F9211242F93FD
:1036A0003F934F935F936F937F938F939F93AF93CA
:1036B000BF93EF93FF938091E10082FF0BC0809155
:1036C000E20082FF07C08091E1008B7F8093E100E0
:1036D0000E94A91D8091DA0080FF19C08091D80056
:1036E00080FF15C08091DA008E7F8093DA00809190
:1036F000D90080FF96C080E189BD82E189BD09B40F
:1037000000FEFDCF81E08093A1020E948A17809184
:10371000E10080FF19C08091E20080FF15C0809118
:10372000E2008E7F8093E2008091E20080618093CE
:10373000E2008091D80080628093D80019BC85E0B7
:103740008093A1020E949E178091E10084FF2BC00C
:103750008091E20084FF27C080E189BD82E189BDBC
:1037600089B5982F917080FFFBCF8091D8008F7D15
:103770008093D8008091E1008F7E8093E10080915A
:10378000E2008F7E8093E2008091E200816080936E
:10379000E20080919D02882309F449C084E080936F
:1037A000A1020E94A7178091E10083FF29C08091A8
:1037B000E20083FF25C08091E100877F8093E100D4
:1037C00082E08093A10210929D028091E1008E7FA1
:1037D0008093E1008091E2008E7F8093E2008091EF
:1037E000E20080618093E20042E060E080E00E94BD
:1037F0004A1A8091F00088608093F0000E949B1725
:10380000FF91EF91BF91AF919F918F917F916F91B8
:103810005F914F913F912F910F900FBE0F901F908E
:10382000189519BC1092A1020E94981770CF809130
:10383000E30087FD93E09093A102B3CF1F920F9214
:103840000FB60F9211242F933F934F935F936F9373
:103850007F938F939F93AF93BF93CF93DF93EF9318
:10386000FF93D091E900DF708091EC00C82FC17008
:1038700080FDC0E81092E9008091F000877F80937E
:10388000F00078940E94621C1092E9008091F00090
:1038900088608093F000CD2BCF70C093E900FF913A
:1038A000EF91DF91CF91BF91AF919F918F917F91D8
:1038B0006F915F914F913F912F910F900FBE0F909D
:1038C0001F901895AAE2B0E0E8E6FCE10C94EE1D2A
:1038D00082EA92E02091F100FC012193CF01F2E015
:1038E0008A3A9F07B9F70E94C7178091E80083FFC3
:1038F0001EC18091A2029091A3029A3008F017C1D4
:10390000E92FF0E0E754F14E0C94D91D803899F07E
:10391000823809F00CC18091A6028F70873008F0C0
:1039200006C18093E9008091EB0085FB882780F930
:103930001092E90006C080919E0290919F02911121
:1039400082609091E800977F9093E8008093F10067
:103950001092F1008091E8008E77E5C0882309F489
:10396000D3C0823009F0E3C08091A4028111D6C097
:103970008091A6028F702FEF280F263008F0D7C055
:103980008093E9002091EB0020FFC8C0933031F410
:103990008091EB0080628093EB00C0C09091EB00BF
:1039A00090619093EB0021E030E001C0220F8A95F6
:1039B000EAF72093EA001092EA008091EB00886019
:1039C000EACF8111B4C01091A4021F778091E30067
:1039D0008078812B8093E3008091E800877F80933B
:1039E000E8000E947E1A8091E80080FFFCCF809161
:1039F000E30080688093E30082E0111183E080930C
:103A0000A10295C08058823008F091C08091A40234
:103A10009091A5028C3D23E09207A1F583E08A8373
:103A20008AE289834FB7F894DE01139620E03EE0E6
:103A300051E2E32FF0E050935700E49120FF03C0E0
:103A4000E295EF703F5FEF708E2F90E0EA30C0F0AC
:103A5000C7968D939D932F5F243159F74FBF809167
:103A6000E800877F8093E8006AE270E0CE0101966B
:103A70000E948D198091E8008B778093E80057C0F1
:103A8000C096E7CF6091A6027091A702AE014F5F8A
:103A90005F4F0E94C818BC01892B09F448C090915F
:103AA000E800977F9093E80089819A810E94EB1942
:103AB000E1CF8038E1F58091E800877F8093E800CE
:103AC00080919D028093F10045CF811130C090918B
:103AD000A402923060F58091E800877F8093E8002F
:103AE00090939D020E947E1A80919D02882311F07E
:103AF00084E005C08091E30087FDFACF81E08093E8
:103B0000A1020E94B21713C08091A402813079F4FF
:103B100081E0933009F080E080939F021092E900E9
:103B20008091E800877F8093E8000E947E1A809150
:103B3000E80083FF0AC08091E800877F8093E80057
:103B40008091EB0080628093EB00AA96E3E00C94F6
:103B50000A1E0895CF938091A1028823A1F0C091FD
:103B6000E900CF709091EC00892F817090FD80E882
:103B7000C82B1092E9008091E80083FD0E94621C2E
:103B8000CF70C093E900CF91089597FB072E16F4EC
:103B9000009407D077FD09D00E94161E07FC05D0BF
:103BA0003EF4909581959F4F0895709561957F4F54
:103BB0000895EE0FFF1F0590F491E02D09942F92C8
:103BC0003F924F925F926F927F928F929F92AF92AD
:103BD000BF92CF92DF92EF92FF920F931F93CF93FA
:103BE000DF93CDB7DEB7CA1BDB0B0FB6F894DEBF91
:103BF0000FBECDBF09942A88398848885F846E84B7
:103C00007D848C849B84AA84B984C884DF80EE8000
:103C1000FD800C811B81AA81B981CE0FD11D0FB609
:103C2000F894DEBF0FBECDBFED010895AA1BBB1BEC
:103C300051E107C0AA1FBB1FA617B70710F0A61BAC
:103C4000B70B881F991F5A95A9F780959095BC01CD
:103C5000CD010895FB01DC0104C08D910190801914
:103C600021F441505040C8F7881B990B0895FB017F
:103C7000DC0102C001900D9241505040D8F70895E8
:103C8000F999FECF92BD81BDF89A992780B5089524
:103C9000A8E1B0E042E050E00C94741E262FF999A0
:103CA000FECF92BD81BDF89A019700B4021639F09B
:103CB0001FBA20BD0FB6F894FA9AF99A0FBE08956C
:103CC0000396272F0E944F1E0E944E1E252F0E94F2
:103CD0004F1E242F0C944F1E0196272F0E944F1E1B
:103CE0000C944E1EDC01CB01FC01F999FECF06C0FD
:103CF000F2BDE1BDF89A319600B40D9241505040AA
:103D0000B8F70895F894FFCFB903B9030A040A0479
:103D10007D049904E803E8039E040F051E051E05B3
:103D20007913ED1381134B134F1385135313891319
:103D300095135F13E6136313991367139D13C5134C
:103D40006B13A113CC137113A713AF1357138D1358
:103D50005B1391137513AB13BB13D513E413451306
:103D60007D13F413A814AE149714A214B414BA1447
:103D7000C014861CAE1C971DAE1C971DE11C021DB5
:063D8000971D591D651D91
:103D86001402280850011E0A1401311766175F171E
:103D9600581701E200E900EA00B500B600B700CD09
:103DA600008301CC008A019201940121022302249E
:103DB600022502260227022A02B300B4006F007011
:103DC600009F01CB019F02A002818283E200E900ED
:103DD600EA00B500B600B700CD008301CC008A0129
:103DE60092019401210223022402250226022702BF
:103DF6002A02B300B4006F0070009F01CB019F023E
:103E0600A0028182839190946697C6F4F5F6F73105
:063E1600333435323600A2
:00000001FF
